{"abi":[{"type":"function","name":"createExchange","inputs":[{"name":"_tokenAddress","type":"address","internalType":"address"}],"outputs":[{"name":"","type":"address","internalType":"address"}],"stateMutability":"nonpayable"},{"type":"function","name":"getExchange","inputs":[{"name":"_tokenAddress","type":"address","internalType":"address"}],"outputs":[{"name":"","type":"address","internalType":"address"}],"stateMutability":"view"},{"type":"function","name":"tokenToExchange","inputs":[{"name":"","type":"address","internalType":"address"}],"outputs":[{"name":"","type":"address","internalType":"address"}],"stateMutability":"view"},{"type":"error","name":"Factory__exchangeAlreadyExists","inputs":[{"name":"","type":"address","internalType":"address"}]}],"bytecode":{"object":"0x6080604052348015600f57600080fd5b506118cc8061001f6000396000f3fe608060405234801561001057600080fd5b50600436106100415760003560e01c806306f2bf62146100465780631648f38e1461008e578063c3c49a63146100a1575b600080fd5b6100726100543660046101e2565b6001600160a01b039081166000908152602081905260409020541690565b6040516001600160a01b03909116815260200160405180910390f35b61007261009c3660046101e2565b6100ca565b6100726100af3660046101e2565b6000602081905290815260409020546001600160a01b031681565b60006001600160a01b03821661011f5760405162461bcd60e51b8152602060048201526015602482015274696e76616c696420746f6b656e206164647265737360581b60448201526064015b60405180910390fd5b6001600160a01b038281166000908152602081905260409020541615610163576040516301b92f5760e11b81526001600160a01b0383166004820152602401610116565b600082604051610172906101d5565b6001600160a01b039091168152602001604051809103906000f08015801561019e573d6000803e3d6000fd5b506001600160a01b03938416600090815260208190526040902080546001600160a01b031916948216949094179093555090919050565b6116848061021383390190565b6000602082840312156101f457600080fd5b81356001600160a01b038116811461020b57600080fd5b939250505056fe608060405234801561001057600080fd5b5060405161168438038061168483398101604081905261002f9161011a565b6040518060400160405280600b81526020016a5a756e69737761702d563160a81b815250604051806040016040528060078152602001665a554e492d563160c81b815250816003908161008291906101e9565b50600461008f82826101e9565b5050506001600160a01b0381166100ec5760405162461bcd60e51b815260206004820152601560248201527f696e76616c696420746f6b656e20616464726573730000000000000000000000604482015260640160405180910390fd5b600580546001600160a01b039092166001600160a01b031992831617905560068054909116331790556102a7565b60006020828403121561012c57600080fd5b81516001600160a01b038116811461014357600080fd5b9392505050565b634e487b7160e01b600052604160045260246000fd5b600181811c9082168061017457607f821691505b60208210810361019457634e487b7160e01b600052602260045260246000fd5b50919050565b601f8211156101e457806000526020600020601f840160051c810160208510156101c15750805b601f840160051c820191505b818110156101e157600081556001016101cd565b50505b505050565b81516001600160401b038111156102025761020261014a565b610216816102108454610160565b8461019a565b6020601f82116001811461024a57600083156102325750848201515b600019600385901b1c1916600184901b1784556101e1565b600084815260208120601f198516915b8281101561027a578785015182556020948501946001909201910161025a565b50848210156102985786840151600019600387901b60f8161c191681555b50505050600190811b01905550565b6113ce806102b66000396000f3fe60806040526004361061011f5760003560e01c806395d89b41116100a0578063c2507ac111610064578063c2507ac11461033a578063dd62ed3e1461035a578063e0486c8a146103a0578063f7a7e324146103c2578063f979dcd7146103e257600080fd5b806395d89b4114610278578063966dae0e1461028d5780639c8f9f23146102c55780639d76ea58146102fa578063a9059cbb1461031a57600080fd5b8063313ce567116100e7578063313ce567146101de57806351c6590a146101fa57806359bf5d391461020d57806370a08231146102225780638fc7a25d1461025857600080fd5b806306fdde0314610124578063095ea7b31461014f57806318160ddd1461017f57806323b872dd1461019e57806329c45cb6146101be575b600080fd5b34801561013057600080fd5b506101396103f5565b60405161014691906110a4565b60405180910390f35b34801561015b57600080fd5b5061016f61016a36600461110a565b610487565b6040519015158152602001610146565b34801561018b57600080fd5b506002545b604051908152602001610146565b3480156101aa57600080fd5b5061016f6101b9366004611136565b6104a1565b3480156101ca57600080fd5b506101906101d9366004611177565b6104c5565b3480156101ea57600080fd5b5060405160128152602001610146565b6101906102083660046111a3565b610566565b34801561021957600080fd5b506101906106ff565b34801561022e57600080fd5b5061019061023d3660046111bc565b6001600160a01b031660009081526020819052604090205490565b34801561026457600080fd5b506101906102733660046111a3565b610771565b34801561028457600080fd5b506101396107d2565b34801561029957600080fd5b506006546102ad906001600160a01b031681565b6040516001600160a01b039091168152602001610146565b3480156102d157600080fd5b506102e56102e03660046111a3565b6107e1565b60408051928352602083019190915201610146565b34801561030657600080fd5b506005546102ad906001600160a01b031681565b34801561032657600080fd5b5061016f61033536600461110a565b610908565b34801561034657600080fd5b506101906103553660046111a3565b610916565b34801561036657600080fd5b506101906103753660046111d9565b6001600160a01b03918216600090815260016020908152604080832093909416825291909152205490565b3480156103ac57600080fd5b506103c06103bb366004611212565b610977565b005b3480156103ce57600080fd5b506103c06103dd366004611234565b610a7f565b6101906103f03660046111a3565b610c5a565b6060600380546104049061126d565b80601f01602080910402602001604051908101604052809291908181526020018280546104309061126d565b801561047d5780601f106104525761010080835404028352916020019161047d565b820191906000526020600020905b81548152906001019060200180831161046057829003601f168201915b5050505050905090565b600033610495818585610d4c565b60019150505b92915050565b6000336104af858285610d5e565b6104ba858585610dd6565b506001949350505050565b600080831180156104d65750600082115b61051a5760405162461bcd60e51b815260206004820152601060248201526f696e76616c696420726573657276657360801b60448201526064015b60405180910390fd5b60006105278560636112bd565b9050600061053584836112bd565b90506000826105458760646112bd565b61054f91906112d4565b905061055b81836112e7565b979650505050505050565b6005546000906001600160a01b03168161057e6106ff565b600003610601576040516323b872dd60e01b81526001600160a01b038316906323b872dd906105b590339030908990600401611309565b6020604051808303816000875af11580156105d4573d6000803e3d6000fd5b505050506040513d601f19601f820116820180604052508101906105f8919061132d565b504790506106ee565b600061060d344761134f565b905060006106196106ff565b905060008261062883346112bd565b61063291906112e7565b90508087101561065557604051635179624b60e11b815260040160405180910390fd5b6040516323b872dd60e01b81526001600160a01b038616906323b872dd9061068590339030908690600401611309565b6020604051808303816000875af11580156106a4573d6000803e3d6000fd5b505050506040513d601f19601f820116820180604052508101906106c8919061132d565b5082346106d460025490565b6106de91906112bd565b6106e891906112e7565b93505050505b6106f83382610e35565b9392505050565b6005546040516370a0823160e01b81523060048201526000916001600160a01b0316906370a0823190602401602060405180830381865afa158015610748573d6000803e3d6000fd5b505050506040513d601f19601f8201168201806040525081019061076c9190611362565b905090565b60008082116107bb5760405162461bcd60e51b81526020600482015260166024820152751d1bdad95b94dbdb19081a5cc81d1bdbc81cdb585b1b60521b6044820152606401610511565b60006107c56106ff565b90506106f88382476104c5565b6060600480546104049061126d565b6000806000831161080557604051632e37ad2560e01b815260040160405180910390fd5b600061081060025490565b61081a85476112bd565b61082491906112e7565b9050600061083160025490565b8561083a6106ff565b61084491906112bd565b61084e91906112e7565b905061085a3386610e6f565b604051339083156108fc029084906000818181858888f19350505050158015610887573d6000803e3d6000fd5b5060055460405163a9059cbb60e01b8152336004820152602481018390526001600160a01b039091169063a9059cbb906044016020604051808303816000875af11580156108d9573d6000803e3d6000fd5b505050506040513d601f19601f820116820180604052508101906108fd919061132d565b509094909350915050565b600033610495818585610dd6565b60008082116109605760405162461bcd60e51b81526020600482015260166024820152751d1bdad95b94dbdb19081a5cc81d1bdbc81cdb585b1b60521b6044820152606401610511565b600061096a6106ff565b90506106f88347836104c5565b600061098283610771565b9050818110156109d45760405162461bcd60e51b815260206004820152601a60248201527f696e73756666696369656e74206f757470757420616d6f756e740000000000006044820152606401610511565b6005546040516323b872dd60e01b81526001600160a01b03909116906323b872dd90610a0890339030908890600401611309565b6020604051808303816000875af1158015610a27573d6000803e3d6000fd5b505050506040513d601f19601f82011682018060405250810190610a4b919061132d565b50604051339082156108fc029083906000818181858888f19350505050158015610a79573d6000803e3d6000fd5b50505050565b6006546040516303795fb160e11b81526001600160a01b03838116600483015260009216906306f2bf62906024016020604051808303816000875af1158015610acc573d6000803e3d6000fd5b505050506040513d601f19601f82011682018060405250810190610af0919061137b565b90506001600160a01b0381163014801590610b1357506001600160a01b03811615155b610b5f5760405162461bcd60e51b815260206004820152601860248201527f696e76616c69642065786368616e6765206164647265737300000000000000006044820152606401610511565b6000610b696106ff565b90506000610b788683476104c5565b6005546040516323b872dd60e01b81529192506001600160a01b0316906323b872dd90610bad90339030908b90600401611309565b6020604051808303816000875af1158015610bcc573d6000803e3d6000fd5b505050506040513d601f19601f82011682018060405250810190610bf0919061132d565b5060405162e2766960e61b8152600481018690523360248201526001600160a01b0384169063389d9a409083906044016000604051808303818588803b158015610c3957600080fd5b505af1158015610c4d573d6000803e3d6000fd5b5050505050505050505050565b600080610c656106ff565b90506000610c7d34610c77814761134f565b846104c5565b905083811015610ccf5760405162461bcd60e51b815260206004820152601a60248201527f696e73756666696369656e74206f757470757420616d6f756e740000000000006044820152606401610511565b60055460405163a9059cbb60e01b8152336004820152602481018390526001600160a01b039091169063a9059cbb906044016020604051808303816000875af1158015610d20573d6000803e3d6000fd5b505050506040513d601f19601f82011682018060405250810190610d44919061132d565b509392505050565b610d598383836001610ea5565b505050565b6001600160a01b038381166000908152600160209081526040808320938616835292905220546000198114610a795781811015610dc757604051637dc7a0d960e11b81526001600160a01b03841660048201526024810182905260448101839052606401610511565b610a7984848484036000610ea5565b6001600160a01b038316610e0057604051634b637e8f60e11b815260006004820152602401610511565b6001600160a01b038216610e2a5760405163ec442f0560e01b815260006004820152602401610511565b610d59838383610f7a565b6001600160a01b038216610e5f5760405163ec442f0560e01b815260006004820152602401610511565b610e6b60008383610f7a565b5050565b6001600160a01b038216610e9957604051634b637e8f60e11b815260006004820152602401610511565b610e6b82600083610f7a565b6001600160a01b038416610ecf5760405163e602df0560e01b815260006004820152602401610511565b6001600160a01b038316610ef957604051634a1406b160e11b815260006004820152602401610511565b6001600160a01b0380851660009081526001602090815260408083209387168352929052208290558015610a7957826001600160a01b0316846001600160a01b03167f8c5be1e5ebec7d5bd14f71427d1e84f3dd0314c0f7b2291e5b200ac8c7c3b92584604051610f6c91815260200190565b60405180910390a350505050565b6001600160a01b038316610fa5578060026000828254610f9a91906112d4565b909155506110179050565b6001600160a01b03831660009081526020819052604090205481811015610ff85760405163391434e360e21b81526001600160a01b03851660048201526024810182905260448101839052606401610511565b6001600160a01b03841660009081526020819052604090209082900390555b6001600160a01b03821661103357600280548290039055611052565b6001600160a01b03821660009081526020819052604090208054820190555b816001600160a01b0316836001600160a01b03167fddf252ad1be2c89b69c2b068fc378daa952ba7f163c4a11628f55a4df523b3ef8360405161109791815260200190565b60405180910390a3505050565b602081526000825180602084015260005b818110156110d257602081860181015160408684010152016110b5565b506000604082850101526040601f19601f83011684010191505092915050565b6001600160a01b038116811461110757600080fd5b50565b6000806040838503121561111d57600080fd5b8235611128816110f2565b946020939093013593505050565b60008060006060848603121561114b57600080fd5b8335611156816110f2565b92506020840135611166816110f2565b929592945050506040919091013590565b60008060006060848603121561118c57600080fd5b505081359360208301359350604090920135919050565b6000602082840312156111b557600080fd5b5035919050565b6000602082840312156111ce57600080fd5b81356106f8816110f2565b600080604083850312156111ec57600080fd5b82356111f7816110f2565b91506020830135611207816110f2565b809150509250929050565b6000806040838503121561122557600080fd5b50508035926020909101359150565b60008060006060848603121561124957600080fd5b83359250602084013591506040840135611262816110f2565b809150509250925092565b600181811c9082168061128157607f821691505b6020821081036112a157634e487b7160e01b600052602260045260246000fd5b50919050565b634e487b7160e01b600052601160045260246000fd5b808202811582820484141761049b5761049b6112a7565b8082018082111561049b5761049b6112a7565b60008261130457634e487b7160e01b600052601260045260246000fd5b500490565b6001600160a01b039384168152919092166020820152604081019190915260600190565b60006020828403121561133f57600080fd5b815180151581146106f857600080fd5b8181038181111561049b5761049b6112a7565b60006020828403121561137457600080fd5b5051919050565b60006020828403121561138d57600080fd5b81516106f8816110f256fea2646970667358221220449ba430d42bfe7996a503326315e908a1a6c8a45b3792d7dd12e329fe3cc1bd64736f6c634300081b0033a264697066735822122090ad4d00b96576dceb23602670aa394299fc104ebdb3348ef4b1abde21bc40e164736f6c634300081b0033","linkReferences":{}},"methodIdentifiers":{"createExchange(address)":"1648f38e","getExchange(address)":"06f2bf62","tokenToExchange(address)":"c3c49a63"},"id":1}