{"abi":[{"type":"function","name":"createExchange","inputs":[{"name":"_tokenAddress","type":"address","internalType":"address"}],"outputs":[{"name":"","type":"address","internalType":"address"}],"stateMutability":"nonpayable"},{"type":"function","name":"getExchange","inputs":[{"name":"_tokenAddress","type":"address","internalType":"address"}],"outputs":[{"name":"","type":"address","internalType":"address"}],"stateMutability":"view"},{"type":"function","name":"tokenToExchange","inputs":[{"name":"","type":"address","internalType":"address"}],"outputs":[{"name":"","type":"address","internalType":"address"}],"stateMutability":"view"},{"type":"error","name":"Factory__exchangeAlreadyExists","inputs":[{"name":"","type":"address","internalType":"address"}]}],"bytecode":{"object":"0x6080604052348015600f57600080fd5b5061182f8061001f6000396000f3fe608060405234801561001057600080fd5b50600436106100415760003560e01c806306f2bf62146100465780631648f38e1461008e578063c3c49a63146100a1575b600080fd5b6100726100543660046101e2565b6001600160a01b039081166000908152602081905260409020541690565b6040516001600160a01b03909116815260200160405180910390f35b61007261009c3660046101e2565b6100ca565b6100726100af3660046101e2565b6000602081905290815260409020546001600160a01b031681565b60006001600160a01b03821661011f5760405162461bcd60e51b8152602060048201526015602482015274696e76616c696420746f6b656e206164647265737360581b60448201526064015b60405180910390fd5b6001600160a01b038281166000908152602081905260409020541615610163576040516301b92f5760e11b81526001600160a01b0383166004820152602401610116565b600082604051610172906101d5565b6001600160a01b039091168152602001604051809103906000f08015801561019e573d6000803e3d6000fd5b506001600160a01b03938416600090815260208190526040902080546001600160a01b031916948216949094179093555090919050565b6115e78061021383390190565b6000602082840312156101f457600080fd5b81356001600160a01b038116811461020b57600080fd5b939250505056fe608060405234801561001057600080fd5b506040516115e73803806115e783398101604081905261002f9161011a565b6040518060400160405280600b81526020016a5a756e69737761702d563160a81b815250604051806040016040528060078152602001665a554e492d563160c81b815250816003908161008291906101e9565b50600461008f82826101e9565b5050506001600160a01b0381166100ec5760405162461bcd60e51b815260206004820152601560248201527f696e76616c696420746f6b656e20616464726573730000000000000000000000604482015260640160405180910390fd5b600580546001600160a01b039092166001600160a01b031992831617905560068054909116331790556102a7565b60006020828403121561012c57600080fd5b81516001600160a01b038116811461014357600080fd5b9392505050565b634e487b7160e01b600052604160045260246000fd5b600181811c9082168061017457607f821691505b60208210810361019457634e487b7160e01b600052602260045260246000fd5b50919050565b601f8211156101e457806000526020600020601f840160051c810160208510156101c15750805b601f840160051c820191505b818110156101e157600081556001016101cd565b50505b505050565b81516001600160401b038111156102025761020261014a565b610216816102108454610160565b8461019a565b6020601f82116001811461024a57600083156102325750848201515b600019600385901b1c1916600184901b1784556101e1565b600084815260208120601f198516915b8281101561027a578785015182556020948501946001909201910161025a565b50848210156102985786840151600019600387901b60f8161c191681555b50505050600190811b01905550565b611331806102b66000396000f3fe6080604052600436106101095760003560e01c806395d89b4111610095578063a9059cbb11610064578063a9059cbb146102e4578063dd62ed3e14610304578063e0486c8a1461034a578063f7a7e3241461036c578063f979dcd71461038c57600080fd5b806395d89b4114610242578063966dae0e146102575780639c8f9f231461028f5780639d76ea58146102c457600080fd5b8063313ce567116100dc578063313ce567146101a857806351c6590a146101c457806359bf5d39146101d757806370a08231146101ec5780638fc7a25d1461022257600080fd5b806306fdde031461010e578063095ea7b31461013957806318160ddd1461016957806323b872dd14610188575b600080fd5b34801561011a57600080fd5b5061012361039f565b6040516101309190611033565b60405180910390f35b34801561014557600080fd5b50610159610154366004611099565b610431565b6040519015158152602001610130565b34801561017557600080fd5b506002545b604051908152602001610130565b34801561019457600080fd5b506101596101a33660046110c5565b61044b565b3480156101b457600080fd5b5060405160128152602001610130565b61017a6101d2366004611106565b61046f565b3480156101e357600080fd5b5061017a61063c565b3480156101f857600080fd5b5061017a61020736600461111f565b6001600160a01b031660009081526020819052604090205490565b34801561022e57600080fd5b5061017a61023d366004611106565b6106ae565b34801561024e57600080fd5b5061012361070f565b34801561026357600080fd5b50600654610277906001600160a01b031681565b6040516001600160a01b039091168152602001610130565b34801561029b57600080fd5b506102af6102aa366004611106565b61071e565b60408051928352602083019190915201610130565b3480156102d057600080fd5b50600554610277906001600160a01b031681565b3480156102f057600080fd5b506101596102ff366004611099565b610865565b34801561031057600080fd5b5061017a61031f36600461113c565b6001600160a01b03918216600090815260016020908152604080832093909416825291909152205490565b34801561035657600080fd5b5061036a610365366004611175565b610873565b005b34801561037857600080fd5b5061036a610387366004611197565b61097b565b61036a61039a366004611106565b610b56565b6060600380546103ae906111d0565b80601f01602080910402602001604051908101604052809291908181526020018280546103da906111d0565b80156104275780601f106103fc57610100808354040283529160200191610427565b820191906000526020600020905b81548152906001019060200180831161040a57829003601f168201915b5050505050905090565b60003361043f818585610c3f565b60019150505b92915050565b600033610459858285610c51565b610464858585610cc9565b506001949350505050565b6005546000906001600160a01b03168161048761063c565b60000361050a576040516323b872dd60e01b81526001600160a01b038316906323b872dd906104be9033903090899060040161120a565b6020604051808303816000875af11580156104dd573d6000803e3d6000fd5b505050506040513d601f19601f82011682018060405250810190610501919061122e565b5047905061062b565b60006105163447611266565b9050600061052261063c565b90506000826105318334611279565b61053b9190611290565b9050808710156105925760405162461bcd60e51b815260206004820152601960248201527f696e73756666696369656e7420746f6b656e20616d6f756e740000000000000060448201526064015b60405180910390fd5b6040516323b872dd60e01b81526001600160a01b038616906323b872dd906105c29033903090869060040161120a565b6020604051808303816000875af11580156105e1573d6000803e3d6000fd5b505050506040513d601f19601f82011682018060405250810190610605919061122e565b50823461061160025490565b61061b9190611279565b6106259190611290565b93505050505b6106353382610d28565b9392505050565b6005546040516370a0823160e01b81523060048201526000916001600160a01b0316906370a0823190602401602060405180830381865afa158015610685573d6000803e3d6000fd5b505050506040513d601f19601f820116820180604052508101906106a991906112b2565b905090565b60008082116106f85760405162461bcd60e51b81526020600482015260166024820152751d1bdad95b94dbdb19081a5cc81d1bdbc81cdb585b1b60521b6044820152606401610589565b600061070261063c565b9050610635838247610d62565b6060600480546103ae906111d0565b600080600083116107625760405162461bcd60e51b815260206004820152600e60248201526d1a5b9d985b1a5908185b5bdd5b9d60921b6044820152606401610589565b600061076d60025490565b6107778547611279565b6107819190611290565b9050600061078e60025490565b8561079761063c565b6107a19190611279565b6107ab9190611290565b90506107b73386610dfe565b604051339083156108fc029084906000818181858888f193505050501580156107e4573d6000803e3d6000fd5b5060055460405163a9059cbb60e01b8152336004820152602481018390526001600160a01b039091169063a9059cbb906044016020604051808303816000875af1158015610836573d6000803e3d6000fd5b505050506040513d601f19601f8201168201806040525081019061085a919061122e565b509094909350915050565b60003361043f818585610cc9565b600061087e836106ae565b9050818110156108d05760405162461bcd60e51b815260206004820152601a60248201527f696e73756666696369656e74206f757470757420616d6f756e740000000000006044820152606401610589565b6005546040516323b872dd60e01b81526001600160a01b03909116906323b872dd906109049033903090889060040161120a565b6020604051808303816000875af1158015610923573d6000803e3d6000fd5b505050506040513d601f19601f82011682018060405250810190610947919061122e565b50604051339082156108fc029083906000818181858888f19350505050158015610975573d6000803e3d6000fd5b50505050565b6006546040516303795fb160e11b81526001600160a01b03838116600483015260009216906306f2bf62906024016020604051808303816000875af11580156109c8573d6000803e3d6000fd5b505050506040513d601f19601f820116820180604052508101906109ec91906112cb565b90506001600160a01b0381163014801590610a0f57506001600160a01b03811615155b610a5b5760405162461bcd60e51b815260206004820152601860248201527f696e76616c69642065786368616e6765206164647265737300000000000000006044820152606401610589565b6000610a6561063c565b90506000610a74868347610d62565b6005546040516323b872dd60e01b81529192506001600160a01b0316906323b872dd90610aa990339030908b9060040161120a565b6020604051808303816000875af1158015610ac8573d6000803e3d6000fd5b505050506040513d601f19601f82011682018060405250810190610aec919061122e565b5060405162e2766960e61b8152600481018690523360248201526001600160a01b0384169063389d9a409083906044016000604051808303818588803b158015610b3557600080fd5b505af1158015610b49573d6000803e3d6000fd5b5050505050505050505050565b6000610b6061063c565b90506000610b7834610b728147611266565b84610d62565b905082811015610bca5760405162461bcd60e51b815260206004820152601a60248201527f696e73756666696369656e74206f757470757420616d6f756e740000000000006044820152606401610589565b60055460405163a9059cbb60e01b8152336004820152602481018390526001600160a01b039091169063a9059cbb906044016020604051808303816000875af1158015610c1b573d6000803e3d6000fd5b505050506040513d601f19601f82011682018060405250810190610975919061122e565b610c4c8383836001610e34565b505050565b6001600160a01b0383811660009081526001602090815260408083209386168352929052205460001981146109755781811015610cba57604051637dc7a0d960e11b81526001600160a01b03841660048201526024810182905260448101839052606401610589565b61097584848484036000610e34565b6001600160a01b038316610cf357604051634b637e8f60e11b815260006004820152602401610589565b6001600160a01b038216610d1d5760405163ec442f0560e01b815260006004820152602401610589565b610c4c838383610f09565b6001600160a01b038216610d525760405163ec442f0560e01b815260006004820152602401610589565b610d5e60008383610f09565b5050565b60008083118015610d735750600082115b610db25760405162461bcd60e51b815260206004820152601060248201526f696e76616c696420726573657276657360801b6044820152606401610589565b6000610dbf856063611279565b90506000610dcd8483611279565b9050600082610ddd876064611279565b610de791906112e8565b9050610df38183611290565b979650505050505050565b6001600160a01b038216610e2857604051634b637e8f60e11b815260006004820152602401610589565b610d5e82600083610f09565b6001600160a01b038416610e5e5760405163e602df0560e01b815260006004820152602401610589565b6001600160a01b038316610e8857604051634a1406b160e11b815260006004820152602401610589565b6001600160a01b038085166000908152600160209081526040808320938716835292905220829055801561097557826001600160a01b0316846001600160a01b03167f8c5be1e5ebec7d5bd14f71427d1e84f3dd0314c0f7b2291e5b200ac8c7c3b92584604051610efb91815260200190565b60405180910390a350505050565b6001600160a01b038316610f34578060026000828254610f2991906112e8565b90915550610fa69050565b6001600160a01b03831660009081526020819052604090205481811015610f875760405163391434e360e21b81526001600160a01b03851660048201526024810182905260448101839052606401610589565b6001600160a01b03841660009081526020819052604090209082900390555b6001600160a01b038216610fc257600280548290039055610fe1565b6001600160a01b03821660009081526020819052604090208054820190555b816001600160a01b0316836001600160a01b03167fddf252ad1be2c89b69c2b068fc378daa952ba7f163c4a11628f55a4df523b3ef8360405161102691815260200190565b60405180910390a3505050565b602081526000825180602084015260005b818110156110615760208186018101516040868401015201611044565b506000604082850101526040601f19601f83011684010191505092915050565b6001600160a01b038116811461109657600080fd5b50565b600080604083850312156110ac57600080fd5b82356110b781611081565b946020939093013593505050565b6000806000606084860312156110da57600080fd5b83356110e581611081565b925060208401356110f581611081565b929592945050506040919091013590565b60006020828403121561111857600080fd5b5035919050565b60006020828403121561113157600080fd5b813561063581611081565b6000806040838503121561114f57600080fd5b823561115a81611081565b9150602083013561116a81611081565b809150509250929050565b6000806040838503121561118857600080fd5b50508035926020909101359150565b6000806000606084860312156111ac57600080fd5b833592506020840135915060408401356111c581611081565b809150509250925092565b600181811c908216806111e457607f821691505b60208210810361120457634e487b7160e01b600052602260045260246000fd5b50919050565b6001600160a01b039384168152919092166020820152604081019190915260600190565b60006020828403121561124057600080fd5b8151801515811461063557600080fd5b634e487b7160e01b600052601160045260246000fd5b8181038181111561044557610445611250565b808202811582820484141761044557610445611250565b6000826112ad57634e487b7160e01b600052601260045260246000fd5b500490565b6000602082840312156112c457600080fd5b5051919050565b6000602082840312156112dd57600080fd5b815161063581611081565b808201808211156104455761044561125056fea2646970667358221220b93f5ead3bcda6448d637155b0c5fe94900662962aee8c1a551adbbcb39feab264736f6c634300081b0033a2646970667358221220a3a3d9ce7c3d75b7f5d309fe6d10e2be2871dda66e0a2317d7b253bc47ad519e64736f6c634300081b0033","linkReferences":{}},"methodIdentifiers":{"createExchange(address)":"1648f38e","getExchange(address)":"06f2bf62","tokenToExchange(address)":"c3c49a63"},"id":1}